:020000040800F2
:10000000C00F0020C1010008290C00082B0C0008BB
:100010002D0C00082F0C0008310C00080000000017
:10002000000000000000000000000000330C000889
:10003000350C000800000000370C00083B0C0008DD
:10004000DB010008DB010008DB010008DB01000820
:10005000DB010008DB010008DB010008DB01000810
:10006000DB010008DB010008DB0100088F1200083B
:10007000951200089B120008A1120008A7120008A0
:10008000AD120008B3120008DB010008DB01000814
:10009000DB010008DB010008DB010008DB010008D0
:1000A000DB010008DB010008DB010008DB010008C0
:1000B000DB010008DB010008DB010008DB010008B0
:1000C000DB010008DB010008DB010008A50A0008CD
:1000D000DB010008DB010008DB010008DB01000890
:1000E000DB010008DB010008DB010008DB01000880
:1000F000DB010008DB010008DB010008B912000881
:10010000DB010008DB010008DB010008DB0100085F
:10011000DB010008DB010008DB010008DB0100084F
:10012000BF120008C3120008C9120008CF1200084D
:10013000D5120008DB010008DB010008DB01000824
:10014000DB010008DB010008DB010008DB0100081F
:10015000DB120008E1120008E7120008DB010008CA
:10016000DB010008DB010008DB010008DB010008FF
:10017000DB010008DB010008DB010008DB010008EF
:10018000DB010008DB010008DB010008DB010008DF
:10019000DB010008DB010008DB010008DB010008CF
:1001A000DB010008DB010008DB010008DFF80CD0F0
:1001B00001F0A4F800480047010C0008C00F00201F
:1001C0000648804706480047FEE7FEE7FEE7FEE7F1
:1001D000FEE7FEE7FEE7FEE7FEE7FEE7030D0008A9
:1001E000AD0100082849084328490860704730B528
:1001F0000F23C27801780125FAB1244A126801F16F
:10020000E02102F4E062C2F5E062C2F30722C2F12B
:100210000404D3404278A24084781C401443220155
:1002200081F80024007800F01F018D404009800013
:1002300000F1E020C0F8005130BD01F01F00854002
:100240004809800000F1E020C0F8805130BD104A1C
:10025000114001430D48001F016070470B4A121DF9
:100260000029116801D0014300E08143116070470B
:100270004FF0E0210428086903D020F00400086151
:10028000704740F00400FAE70000FA050CED00E0CA
:1002900080FFFF1FF948016841F001010160F74A42
:1002A0000021083211600268F54B1A400260031DFC
:1002B000F44A1A60F14BF44A84331A60F14A103A56
:1002C0001B1D1A60026822F480220260EB480C3089
:1002D0000160181D01607047E8490022891C0A70FE
:1002E0000870704702460020510901290CD00229EC
:1002F0000CD0E2497431096802F01F0201239340D7
:100300000B4200D001207047DC49F4E7DB49703133
:10031000F1E718B500204FF4A04400903120FFF71A
:10032000E1FF0099491C0091A14201D00028F5D0BD
:100330003120FFF7D7FF002800D0012018BDCF4A99
:10034000116821F0F80141EAC00010607047CF4900
:1003500008607047C949002270310A700A7001288C
:1003600002D0042801D1052008707047C8490860F0
:10037000704741EA82115A0810B5C64B029C03EB44
:1003800002421143014341EA0460BC49091D08606F
:1003900010BDBE4908667047800140EA0160B74958
:1003A00040EA0270843108607047B8498866704737
:1003B000800140EA0160B14940EA0270883108607A
:1003C0007047B24908677047B049C8647047AB4B83
:1003D00008331A68084322F0EC6210431860704733
:1003E000A64B08331A68084322F07842104318607D
:1003F0007047A24A0832116821F0030101431160DD
:1004000070479E480830006800F00C0070479B4A17
:100410000832116821F0F001014311607047974ADA
:100420000832116821F4E051014311607047934A8A
:100430000832116821F4604141EAC0001060704741
:1004400070B58E4B08331968934C11F00C0104D031
:100450006610042903D0082903D004601BE006605D
:1004600019E0864A121D1168C1F38055116801F028
:100470003F0115B1B6FBF1F101E0B4FBF1F11468F5
:100480001268C4F388146143C2F30142521C520043
:10049000B1FBF2F1016019680F2202EA11117F4AE3
:1004A000545C0168E14041601C68072505EA94241A
:1004B000145D21FA04F484601B6805EA5333D25CAE
:1004C000D140C16070BDC0F30121032908D16B4B3D
:1004D00008331968724A21F4F81102400A431A607D
:1004E000664970310A68C0F30B0002430A60704726
:1004F000674944390860704765494039086070476A
:100500006249C1F85C0170475C4A8C32116821F481
:100510004011014311607047584A8C32116821F430
:100520004001014311607047544A8C321168401EEB
:1005300021F01F01014311607047504A8C3211684D
:100540006FF0FF0321F4F85103EB00200843106023
:1005500070474A4A8C32116821F4403101431160DE
:1005600070475049C1F8E0017047444A30320029D1
:10057000116801D0014300E08143116070473F4A98
:1005800034320029116801D0014300E08143116039
:1005900070473A4A38320029116801D0014300E01F
:1005A000814311607047354A40320029116801D0FB
:1005B000014300E0814311607047304A4432002912
:1005C000116801D0014300E08143116070472B4A5C
:1005D00010320029116801D0014300E0814311600D
:1005E0007047264A14320029116801D0014300E007
:1005F000814311607047214A18320029116801D0E7
:10060000014300E08143116070471C4A20320029F9
:10061000116801D0014300E0814311607047174A1F
:1006200024320029116801D0014300E081431160A8
:100630007047124A50320029116801D0014300E08E
:100640008143116070470D4A54320029116801D06E
:10065000014300E0814311607047084A5832002985
:10066000116801D0014300E0814311607047034AE3
:1006700060320029116817D0014316E000380240AB
:10068000FFFFF6EA1030002400300020000047424F
:10069000800E47420000FFFF0024F400000000200D
:1006A000FFFCFF0F00104742814311607047194A59
:1006B0000029116801D0014300E0814311607047B7
:1006C00014490C310128086803D020F008000860A4
:1006D000704740F00800FAE70E4A573A00291178AF
:1006E00001D0014300E08143117070470948103088
:1006F000016841F08071016070470146054A0020A1
:10070000583A12680A4200D0012070470149563910
:100710000870704764380240774910B5884206D1A6
:1007200001210846FFF753FF002101205BE07349D8
:10073000884206D101210220FFF749FF0021022053
:1007400051E06F49884206D101210420FFF73FFFA5
:100750000021042047E06B49884206D1012108208E
:10076000FFF735FF002108203DE06749884206D1A8
:1007700001211020FFF72BFF0021102033E06349F7
:10078000884206D101212020FFF721FF00212020EF
:1007900029E05F49884206D101214020FFF717FF79
:1007A000002140201FE05B49884206D101218020C2
:1007B000FFF70DFF0021802015E05749884202D144
:1007C000012184150AE05549884202D101214415CE
:1007D00004E0534988420AD1012104152046FFF75D
:1007E000F6FE00212046BDE81040FFF7F0BE10BD28
:1007F000F0B5002201274FF0030C0B6807FA02F551
:100800002B40AB422CD1066853000CFA03F4A643EC
:1008100006600E79D0F800E09E4046EA0E060660BB
:100820000E79012E01D0022E12D18668A643866071
:100830004E79D0F808E09E4046EA0E06866046688B
:10084000AE43466045688E799640B6B23543456002
:10085000C568A543C560CC799C40C3681C43C4608F
:10086000521C102AC9D3F0BD4FF6FF710160002160
:10087000017141718171C171704708B541F48032D5
:100880000092C261C1610099C161C169C0690090F3
:1008900008BD0246002012690A4200D001207047BC
:1008A000006980B270470246002052690A4200D0B7
:1008B00001207047406980B27047018370474183CF
:1008C00070470AB1018370474183704741617047A7
:1008D00042694A40426170474B07DB0E9A40C908A3
:1008E00010B500EB8100016A0F249C40A143016216
:1008F000016A1143016210BD000002400004024081
:1009000000080240000C02400010024000140240A7
:1009100000180240001C0240002002400024024057
:100920000028024070B55A484168491C41608168FE
:1009300011B18168491E8160AFF300800024554EDB
:1009400018E006EB8405686890B1017B81B182688C
:1009500072B1521E826069680AD148690969884784
:100960006868016881606868416809B9002101739D
:10097000641CE4B23078A042E3D870BD46480168F8
:100980004FF47A70B1FBF0F0401EB0F1807F12D2CC
:100990004FF0E0225061414BF02083F8140D00200D
:1009A0009061072010613E48B1FBF0F13848C1600A
:1009B000012101707047FEE735480078002805D016
:1009C0004FF0E020016941F00201016170474FF0F2
:1009D000E020016921F00201016170472DE9F04733
:1009E0002C4C0546DDF8209020781E461746884698
:1009F000052802D30020BDE8F087182000F0C8FCCD
:100A00000028F8D00560C0E901850773C0E90469D2
:100A1000217804EB810148602178491C2170EAE7C4
:100A20001C4B30B400211A7806E003EB81046468A3
:100A3000844203D0491CC9B28A42F6D88A4218D0EF
:100A400003EB81004068EFF3108472B605E003EB1E
:100A50008102491C9568C9B255601A78521E8A42B3
:100A6000F5DC1978491E197004B962B630BC00F083
:100A700067BC30BC704700210173704701210173CE
:100A8000704701688160704741607047016070473E
:100A90001000002044000020280000200FE000E0AB
:100AA000C0C62D0070B5594D0121284600F0F3FA5B
:100AB000574C012811D10121284600F0F3FAA989E9
:100AC000544A606842F8201000214FF47A72216085
:100AD000491C21609142FBD3A8816068401C606082
:100AE00070BDF0B587B001210820FFF73EFD01265B
:100AF0008DF8046002258DF8055000248DF806401D
:100B000069464548FFF774FE01210803FFF755FDCC
:100B100001210846FFF729FD01210846FFF725FDC1
:100B200001214020FFF721FD8DF804604FF4C04003
:100B30008DF8064000908DF8074003278DF805706A
:100B400069463648FFF754FE00968DF804408DF84C
:100B50000640334E8DF807508DF8057069463046D3
:100B6000FFF746FE052207213046FFF7B5FE0522B6
:100B700011463046FFF7B0FE052206213046FFF74A
:100B8000ABFE8DF804508DF80550E0208DF806403E
:100B900000908DF8074069463046FFF729FE8DF832
:100BA000044010208DF8055000908DF806406946ED
:100BB0003046FFF71DFE2020ADF80840ADF80C4090
:100BC000ADF81040ADF81400ADF80E40ADF812408D
:100BD000ADF81640ADF80A400C4C02A9204600F0D2
:100BE00033F901226021204600F049FA0121204614
:100BF00000F0BEF90B490820C1F8000107B0F0BDB4
:100C000000F07FF8FFF76DFFFEE7000000300140C5
:100C1000200000205C000020000802400018024074
:100C20000000024004E000E07047FEE7FEE7FEE758
:100C3000FEE7704770477047704710B5FFF772FEC8
:100C400010BD00001CB500215B4A009101911068A5
:100C500040F4803010604FF4A043106800F400307E
:100C600001900098401C0090019810B9009898429B
:100C7000F3D11068800342D5012001904E484030E6
:100C8000016841F0805101604C49086840F44040DF
:100C900008604948083003680360036843F4004370
:100CA0000360036843F4A0530360041F444B2360B4
:100CB000136843F08073136013689B01FCD50A68C6
:100CC00042F480320A604A68D203FCD50A6842F4D2
:100CD00000320A604A689203FCD53A4A40F2057134
:100CE0001160016821F003010160016841F0020117
:100CF00001600168C1F381010229FAD11CBD019193
:100D00001CBD314810B5016841F4700101602A48EA
:100D1000016841F001010160274A00210832116099
:100D200002682A4B1A400260031D294A1A600268B1
:100D300022F48022026020480C300160FFF782FF1D
:100D400021494FF000608039086010BD70B51A4D20
:100D5000083528681F4B204910F00C0004D05E10A5
:100D6000042803D0082803D00B601BE00E6019E0B4
:100D7000114A121D1068C0F38054106800F03F0043
:100D800014B1B6FBF0F001E0B3FBF0F013681268A9
:100D9000C3F388135843C2F30142521C5200B0FB04
:100DA000F2F0086028680C4AC0F30310121D105CB2
:100DB0000A68C2400A6070BD0038024000700040FE
:100DC000085A4007003C024088ED00E0FFFFF6FEB5
:100DD000103000240024F40028000020C14910B580
:100DE000884202D10121841424E0BF49884202D103
:100DF0000121041404E0BD4988420AD10121C41331
:100E00002046FFF702FC2046BDE810400021FFF716
:100E1000FCBBB749884202D1012144140AE0B5491C
:100E2000884202D101210C0504E0B34988420AD16D
:100E300001214C052046FFF7F2FB2046BDE810409B
:100E40000021FFF7ECBB10BD30B502884C8802F4DE
:100E500041530A88CD8822438C882C4322430C8935
:100E600022434C8922438C892243CC8922431A4352
:100E70000280828B22F400628283098A018230BD63
:100E8000F0B502220023858B01244FF24006354045
:100E900085830284868B8D68022D3DD08A8802B1BD
:100EA0000224964A13681B0203D5136823F4000337
:100EB0001360924A7C3213681268C3F388138F4F11
:100EC000C2F302723F1F3D683F6805F03F057F0295
:100ED00001D58B4F00E08B4FB7FBF5F55D43B5FBBC
:100EE000F2F2CB88B3F5007F2BD06301B2FBF3F2B3
:100EF00002EB82028B685200B2FBF3F2521D92B2F7
:100F00000A23B2FBF3F202F00103D21A4FF6FF7488
:100F1000C2F34F0204EA0323941EFE2C01D30222E3
:100F20000023CC881A43144304840A884B881A434C
:100F30008B8889890B431A43324342F400618183D1
:100F4000F0BD120AD4E70021018041808180C18078
:100F5000018141818181C181072101827047002186
:100F6000018041808180C18002228260818170473E
:100F70000029018802D041F0400101E021F0400148
:100F8000018070470029818B02D041F4806101E02B
:100F900021F4806181837047028822F4006202801C
:100FA00002880A4302807047B1F5804F018803D060
:100FB00021F480410180704741F48041FAE7A1F5B6
:100FC0007E420188FF3A02D041F4807101E021F4B1
:100FD0008071018070470029818802D041F00401AE
:100FE00001E021F00401818070470029818802D04E
:100FF00041F0100101E021F010018180704730B50F
:10100000828B00234FF2400422408283022202841A
:10101000848B0A884FF48075B2F5007F00D002B946
:101020002B464A888D8889892A4319430A432243DB
:1010300042F40061818330BD8089704781817047AF
:101040000029018802D041F4005101E021F400514F
:1010500001807047018841F4805101807047012967
:1010600001D0008B7047808A7047008A7047002A41
:10107000828801D00A4300E08A43828070470909D0
:1010800001238B40002A828899B201D00A4300E0F4
:101090008A43828070470246002012890A4200D0AB
:1010A00001207047C9430181704730B501F00F033B
:1010B0000125024605FA03F40020A3B2090905FA46
:1010C00001F49188A4B2128921401A4202D0002969
:1010D00000D0012030BD01F00F0201219140C94331
:1010E000018170470030014000380040003C004062
:1010F00000340140005001400054014008380240D3
:1011000000127A000024F400784A10B518239042A7
:1011100002D2774A774C03E0744A744C083A64422E
:101120002044B0FBF3F0042801D3001F121D724BC2
:1011300001F03D01185C8140116010BD3D21E3E7E5
:101140006A491822884203D269496A4B083903E088
:101150006649664B10395B421844B0FBF2F0042834
:1011600001D3001F091D0968634A105CC14001F0EA
:101170003D00704738B504463D21FFF7C5FF5E4A84
:101180005A4B1820121D01219C4207D2594B8DF851
:1011900001102344B3FBF0F0125C08E0534B8DF8D0
:1011A00001105B422344B3FBF0F00244127A8DF845
:1011B00000208DF803108DF802006846FFF717F83D
:1011C000206840F01E002060606940F0800060618F
:1011D00038BD10B504463D21FFF796FF4648434A07
:1011E0001821001D944201D2424A01E03F4A524276
:1011F0002244B2FBF1F14056012100F01F02914060
:101200004009800000F1E020C0F88011206820F043
:101210001E002060606900F08000606110BD7047B2
:10122000704770477047704770B505463D21FFF71E
:1012300087FF84B23D212846FFF766FFA00605D54B
:101240002868C00602D52846FFF7E9FFE00605D565
:101250002868000702D52846FFF7E2FF200705D5DA
:101260002868400702D52846FFF7DBFF600705D551
:101270002868800702D52846FFF7D4FFE00705D08D
:101280006869000602D52846FFF7CDFF70BD1848F3
:101290000830C9E716482030C6E715483830C3E79C
:1012A00013485030C0E712486830BDE7104880301E
:1012B000BAE70F489830B7E70D48B030B4E70B48AD
:1012C000B2E70A481830AFE708483030ACE70748C3
:1012D0004830A9E705486030A6E704487830A3E71E
:1012E00002489030A0E70148A8309DE71064024012
:1012F00008600240F09FFDBFFC130008064C074D3C
:1013000006E0E06840F0010394E8070098471034D5
:10131000AC42F6D3FEF74EFF10140008301400085C
:1013200002E008C8121F08C1002AFAD170477047AE
:10133000002001E001C1121F002AFBD1704700000C
:1013400010B5002821D0114B0022001F196803E0BE
:10135000814203D80A4649680029F9D152B113687D
:10136000841A9C4204D1006818441060104602E0C0
:10137000506000E0186039B102680B1A934203D143
:101380000B681A4402604968416010BD3C000020AF
:10139000F0B50B30154D20F007010024144A0FE082
:1013A00003688B420BD38B4205D95E1A43184768FA
:1013B000C3E9006700E04368136002C004E0021D57
:1013C00010680028ECD12046002802D1286808B116
:1013D0000020F0BD064A07481060074A121A22F0A2
:1013E0000702C0E9002401202860D7E74000002060
:1013F0003C000020C4090020C00B0020000610168D
:101400000B0C0D0E0F10112F38393A3B3C4445465A
:1014100030140008000000204400000020130008E1
:1014200074140008440000207C0F000030130008F2
:10143000000000000102030401020304060708097A
:10144000000000000000000000000000000000009C
:1014500000000000000000000095BA0A0000000033
:101460000000000001020304060708090000000054
:041470000000000078
:04000005080001AD41
:00000001FF
